:020000020000FC
:040000000C94260036
:04002C000C94AA0086
:100048000C94AA001FE51DBF18E01EBF70D00FEF6B
:1000580004BB7894442750EF4395F1F75395E1F7A3
:100068006DD0FEF7202F0BD051D003D010D001D087
:10007800F1CF50E063E051506040E8F708952A302E
:1000880008F408952A5033952A30C8F7089511E0E6
:100098001BBB293099F02830A9F02730B9F0263059
:1000A800C9F02530D9F02430E9F02330F9F02230B6
:1000B80009F1213019F1203029F1089533275FE63D
:1000C80055BB089533275FE755BB0895332757E09D
:1000D80055BB089533275DE755BB089533275DE683
:1000E80055BB0895332756E655BB089533275FE47B
:1000F80055BB089533275BE555BB0895332756E074
:1001080055BB089533275FE355BB089512E01BBB29
:100118003030C1F3313091F3323061F3333031F3A1
:10012800343001F33530D1F23630A1F208950BE0C6
:1001380008B901E009BFB99ABB98089501EC02BF5C
:10014800E894BA9802E003BFC19A089502B711274C
:0C01580013BF025CC198BA9A6894189515
:00000001FF
