:020000020000FC
:040000000C94260036
:04002C000C94D2005E
:100048000C94D2001FE51DBF18E01EBF98D00FEF1B
:1000580004BB7894442750EF4395F1F75395E1F7A3
:1000680095D0FEF7202F08D019D082D011D06FD0AC
:100078000FD021D00DD0EECFAF93BF930F93E4EB09
:10008800F1E0E20F0027F01F24910F91BF91AF918B
:1000980050E063E051506040E8F70895243618F4C2
:1000A8002A3020F408952456739508952A503395DC
:1000B8002A30A0F7089511E01BBB293099F02830A9
:1000C800B1F02730C9F02630E1F02530F9F02430BE
:1000D80011F1233029F1223041F1213059F120303A
:1000E80071F10895332777275FE655BB0895772781
:1000F80033275FE755BB08957727332757E055BB6C
:100108000895772733275DE755BB08957727332769
:100118005DE655BB08957727332756E655BB089506
:10012800772733275FE455BB0895772733275BE5A7
:1001380055BB08957727332756E055BB0895772791
:1001480033275FE355BB089550E855BB089512E087
:100158001BBB3030A1F3313069F3323031F3333027
:10016800F9F23430C1F2353089F2363051F208955F
:1001780014E01BBB703019F37130E1F208950BE005
:1001880008B901E009BFB99ABB98089502E402BF13
:10019800E894BA9802E003BFC19A089502B71127FC
:1001A80013BF0354C198BA9A6894189500000106C1
:1001B8000B1014181C2024272B2E3134373A3D3FBE
:1001C800424447494B4D4F5153555658595B5C5E15
:1001D8005F6062636465666768696A6B6C6C6D6EA4
:1001E8006F6F7071717272737374747575767677D8
:1001F80077777878787979797A7A7A7A7B7B7B7B62
:100208007B7C7C7C7C7C7C7D7D7D7D7D7D7D7E7E1C
:100218007E7E7E7E7E7E7E7E7F7F7F7F7F7F7F7FEE
:0E0228007F7F7F7F7F7F7F7F7F7F80808080D2
:00000001FF
