:020000020000FC
:040000000C94260036
:04002C000C94C5006B
:100048000C94C5001FE51DBF18E01EBF8BD00FEF35
:1000580004BB7894442750EF4395F1F75395E1F7A3
:1000680088D0FEF7202F0AD01BD075D013D05CD0D3
:1000780011D025D00FD033277727ECCFAF93BF937C
:100088000F93EAE9F1E0E20F0027F01F24910F91A6
:10009800BF91AF9150E063E051506040E8F7089598
:1000A800243618F42A3030F40895245673952436EB
:1000B800B8F308952A5033952A3090F7089511E03F
:1000C8001BBB293099F02830A1F02730A9F0263041
:1000D800B1F02530B9F02430C1F02330C9F0223016
:1000E800D1F02130D9F02030E1F008955FE655BB1A
:1000F80008955FE755BB089557E055BB08955DE740
:1001080055BB08955DE655BB089556E655BB089561
:100118005FE455BB08955BE555BB089556E055BBB4
:1001280008955FE355BB089512E01BBB3030C9F357
:100138003130A1F3323079F3333051F3343029F3CD
:10014800353001F33630D9F23730B1F2383089F230
:10015800393061F2089514E01BBB703011F371302F
:10016800E9F208950BE008B901E009BFB99ABB9814
:10017800089502E802BFE894BA9802E003BFC19A62
:10018800089502B7112713BF0358C198BA9A689403
:100198001895000001060B1014181C2024272B2E7C
:1001A8003134373A3D3F424447494B4D4F515355FF
:1001B8005658595B5C5E5F60626364656667686930
:1001C8006A6B6C6C6D6E6F6F707171727273737431
:1001D80074757576767777777878787979797A7AA1
:1001E8007A7A7B7B7B7B7B7C7C7C7C7C7C7D7D7D4D
:1001F8007D7D7D7D7E7E7E7E7E7E7E7E7E7E7F7F19
:100208007F7F7F7F7F7F7F7F7F7F7F7F7F7F7F7FF6
:040218007F7F7F7FE6
:00000001FF
