:020000020000FC
:040000000C94260036
:04002C000C94A2008E
:100048000C94A2001FE51DBF18E01EBF68D00FEF7B
:1000580004BB7894442750EF4395F1F75395E1F7A3
:1000680065D0FEF7202F03D04CD009D0F3CF2A302B
:1000780008F408952A5033952A30C8F7089511E0F6
:100088001BBB293099F02830A9F02730B9F0263069
:10009800C9F02530D9F02430E9F02330F9F02230C6
:1000A80009F1213019F1203029F1089533275FE64D
:1000B80055BB089533275FE755BB0895332757E0AD
:1000C80055BB089533275DE755BB089533275DE693
:1000D80055BB0895332756E655BB089533275FE48B
:1000E80055BB089533275BE555BB0895332756E084
:1000F80055BB089533275FE355BB089550E855BBBA
:10010800089512E01BBB3030A9F3313079F3323057
:1001180049F3333019F33430E9F23530B9F20BE0F2
:1001280008B901E009BFB99ABB98089500EC02BF6D
:10013800E894BA9802E003BFC19A089502B711275C
:0C01480013BF015CC198BA9A6894189526
:00000001FF
