:020000020000FC
:040000000C94260036
:04002C000C94AB0085
:100048000C94AB001FE51DBF18E01EBF71D00FEF69
:1000580004BB7894442750EF4395F1F75395E1F7A3
:100068006ED0FEF7202F0BD054D003D010D001D083
:10007800F1CF50E063E051506040E8F708952A302E
:1000880008F408952A5033952A30C8F7089511E0E6
:100098001BBB293099F02830A9F02730B9F0263059
:1000A800C9F02530D9F02430E9F02330F9F02230B6
:1000B80009F1213019F1203029F1089533275FE63D
:1000C80055BB089533275FE755BB0895332757E09D
:1000D80055BB089533275DE755BB089533275DE683
:1000E80055BB0895332756E655BB089533275FE47B
:1000F80055BB089533275BE555BB0895332756E074
:1001080055BB089533275FE355BB089550E855BBA9
:10011800089512E01BBB3030A9F3313079F3323047
:1001280049F3333019F33430E9F23530B9F2089530
:100138000BE008B901E009BFB99ABB98089500EC33
:1001480002BFE894BA9802E003BFC19A089502B7C3
:0E015800112713BF015CC198BA9A68941895DC
:00000001FF
